S02B00002F686F6D652F74696D70656172736F6E2F446F63756D656E74732F576172702D6669726D7761726557
S113000000060020150500003D0500003D05000028
S113001000000000000000000000000000000000DC
S11300200000000000000000000000003D0500008A
S113003000000000000000003D0500003D05000038
S11300403D0500003D0500003D0500003D050000A4
S11300503D0500003D0500003D0500003D05000094
S1130060D92C00003D050000E32C00003D050000F4
S11300703D0500003D0500003D0500003D05000074
S11300803D0500003D0500003D0500003D05000064
S1130090790E0000910E00003D0500003D050000B2
S11300A03D0500003D0500003D0500003D05000044
S11300B03D0500003D0500003D0500003D05000034
S1130400FFFFFFFFFFFFFFFFFFFFFFFFFE3DFFFFBB
S11304100448054B10B5834203D0044B002B00D095
S1130420984710BDA8FFFF1FA8FFFF1F0000000092
S113043006480749091A8910CB0F591810B54910F5
S113044003D0044B002B00D0984710BDA8FFFF1F1A
S1130450A8FFFF1F0000000010B5074C2378002BF5
S113046009D1FFF7D5FF054B002B02D0044800E06B
S113047000BF0123237010BDA8FFFF1F0000000070
S113048098660000054B10B5002B03D004490548BD
S113049000E000BFFFF7CCFF10BDC0460000000025
S11304A0ACFFFF1F98660000144B002B00D1124BC9
S11304B09D46402292029A1A924600218B460F468C
S11304C01148124A121A00F0F7F80D4B002B00D015
S11304D098470C4B002B00D09847002000210400C3
S11304E00D000B4800F02EF800F06AF820002900F7
S11304F001F07CF900F034F8000008000006002048
S11305000000000000000000A8FFFF1FC40200203C
S11305108D05000072B606480649074A02600A6063
S113052002F0E4FB02F024FC62B6FFF7BDFF00001A
S113053080E100E080E200E0FFFFFFFF00480047A9
S11305403D05000010B5010000230022002000F04A
S113055009FA10BD014B18687047C04600FEFF1F22
S1130560084B10B50400002B02D0002100F068FAFB
S1130570054B1868836A002B00D09847200000F0D0
S11305804DFCC046410A0000904E000070B5094B76
S1130590094CE41AA41009D0084AA518AD00ED18B6
S11305A02B68013C9847043D002CF9D106F07AF8F9
S11305B070BDC046BC660000C0660000FFFFFF3F80
S11305C070B50D4E0D4DAD1BAD1006D00024A3002B
S11305D0F35801349847A542F9D106F05DF8084E66
S11305E0084DAD1BAD1006D00024A300F358013410
S11305F09847A542F9D170BDB8660000B8660000FE
S1130600B8660000BC66000010B5034B0100186812
S113061000F0F6F810BDC04600FEFF1F10B5034BF6
S11306200100186800F096F810BDC04600FEFF1FD8
S1130630F0B50F2A38D90D0005430C000300AD07AF
S113064036D110271500BC46103D2D092E01361851
S1130650B444276866681F605E60A768E6689F60A8
S1130660DE60103310346345F3D10F2401352D01BE
S1130670491914404519032C1CD90023CE58EE50B7
S11306800433E61A032EF9D80323043CA4080134E6
S1130690A4002D1909191A4005D00023CC5CEC5490
S11306A001339342FAD1F0BD0500002AF5D1FAE7EF
S11306B00500F2E72200F8E7F0B5830746D0541EA0
S11306C0002A42D0CEB20200032502E01A00013C07
S11306D03BD3531C16702B42F8D1032C2DD9FF2287
S11306E00A40150215432A0415430F2C16D9270076
S11306F0103F3F093E01B4461E001A0010366644FE
S1130700156055609560D5601032B242F8D10F2261
S113071001373F01DB191440032C0ED9261FB608FC
S1130720B700BC461A001F1D674420C2BA42FCD160
S113073003220136B6009B191440002C05D0C9B21F
S11307401C19197001339C42FBD1F0BD1400030045
S1130750C3E7C04670B50500002915D00C1F2368F7
S1130760002B27DB280000F0D5F9244B1A68002A57
S113077005D0A2420CD92168601882421CD0626064
S113078028001C6000F0C8F970BDA34203D81A0009
S11307905368002BF9D111685018A04219D012D80F
S11307A021686018834221D063605460280000F0FF
S11307B0B3F9E9E7E418D5E7106852688446614460
S11307C021606260DCE70C2328002B6000F0A4F9B0
S11307D0DAE720680918501811608342E6D11868D6
S11307E05B688446614411605360DFE718685B68A6
S11307F084466144216063605460D7E7C4FFFF1FEF
S1130800F8B50323CD1C9D43083506000C2D2AD2D0
S11308100C25A94229D8300000F07CF92A4F3A6807
S1130820002A0AD013685B1B04D440E023685B1BD6
S11308301FD522005468002CF8D17B68002B3DD0D2
S11308402900300000F042F8431C29D00323C41CC3
S11308509C43A04205D0211A300000F037F8431C15
S11308601ED025600AE0002DD3DA0C23002033606B
S1130870F8BD0B2B0FD92360E4182560300000F07D
S11308804BF9200007220B30231D9043C31AEFD0ED
S11308905A42E250ECE7A2420DD063685360EDE7A0
S11308A00C233000336000F037F90020E0E7140037
S11308B00B2BE0D854683C601400DFE700213000C3
S11308C000F004F87860BBE7C4FFFF1F002370B595
S11308D0064C05000800236000F0A2FA431C00D077
S11308E070BD2368002BFBD02B60F9E7C002002009
S11308F003000A7801311A700133002AF9D17047D4
S113090010B5040083070AD00378002B23D00322F8
S113091002E00378002B1CD001301042F9D10268A8
S11309200E4B0F49D31893430B420FD10430026886
S11309300A4BD31893430B4208D104300268074B87
S1130940D31893430B42F1D000E001300378002B1D
S1130950FBD1001B10BD0020FCE7C046FFFEFEFEDD
S113096080808080F0B546464F46D646C0B51F000D
S11309702F4B82B01C6805000E009046002C2DD031
S113098063681F2B50DC002D1CD08822A058914690
S1130990002834D07832825894469A009146814493
S11309A0424649460A600121624699400A439446F8
S11309B080228A466146520081504946803A8F50CF
S11309C0022D16D000205A1C02339B0062601E5177
S11309D002B01CBC90469946A246F0BD154C1C6062
S11309E0154B002BCCD01B6801938823019AE2504D
S11309F0C6E75546843281580D438550E2E70F4BD4
S1130A00002B11D084204000FFF7FEFD00280BD0FE
S1130A108022002352008350043283504B4600222C
S1130A20E05094466368B8E701204042D0E7C046EE
S1130A3058000020CCFFFF1F000000000906000042
S1130A40F0B5DE4657464E464546E0B5304B85B0D8
S1130A501F6803909B460E00002F34D08823FB5858
S1130A6098467B685C1E2ED49B00994643464B44B3
S1130A70019300250AE04346002B04D0019B5B1937
S1130A80DB6FB34204D0043D013C1CD3002EF2D1F1
S1130A904B467968EB18FB1801395A68A14231D0EA
S1130AA000215960002AEED07B689A464346002B09
S1130AB010D190475B467A681B68524501D1BB420E
S1130AC0E1D01F1ECAD105B03CBC90469946A2464F
S1130AD0AB46F0BD012380204146A34040000958A5
S1130AE002911942E5D00198291F415840468C468D
S1130AF08221490041580291194205D16146039867
S1130B009047D7E77C60CDE760469047D2E7C04680
S1130B10580000207047C0467047C04602B4714672
S1130B2049084900095C49008E4402BC7047C0462C
S1130B30002243088B4274D303098B425FD3030A18
S1130B408B4244D3030B8B4228D3030C8B420DD32B
S1130B50FF22090212BA030C8B4202D312120902B9
S1130B6065D0030B8B4219D300E0090AC30B8B42F7
S1130B7001D3CB03C01A5241830B8B4201D38B03A5
S1130B80C01A5241430B8B4201D34B03C01A52414A
S1130B90030B8B4201D30B03C01A5241C30A8B428D
S1130BA001D3CB02C01A5241830A8B4201D38B0278
S1130BB0C01A5241430A8B4201D34B02C01A52411C
S1130BC0030A8B4201D30B02C01A5241CDD2C3098E
S1130BD08B4201D3CB01C01A524183098B4201D30A
S1130BE08B01C01A524143098B4201D34B01C01AF5
S1130BF0524103098B4201D30B01C01A5241C3086D
S1130C008B4201D3CB00C01A524183088B4201D3DB
S1130C108B00C01A524143088B4201D34B00C01AC7
S1130C205241411A00D20146524110467047FFE733
S1130C3001B5002000F0F0F802BDC0460029F7D04D
S1130C4076E7704703460B437FD4002243088B4268
S1130C5074D303098B425FD3030A8B4244D3030B3F
S1130C608B4228D3030C8B420DD3FF22090212BA04
S1130C70030C8B4202D31212090265D0030B8B4280
S1130C8019D300E0090AC30B8B4201D3CB03C01A6A
S1130C905241830B8B4201D38B03C01A5241430B45
S1130CA08B4201D34B03C01A5241030B8B4201D335
S1130CB00B03C01A5241C30A8B4201D3CB02C01AA0
S1130CC05241830A8B4201D38B02C01A5241430A18
S1130CD08B4201D34B02C01A5241030A8B4201D307
S1130CE00B02C01A5241CDD2C3098B4201D3CB01AE
S1130CF0C01A524183098B4201D38B01C01A52415D
S1130D0043098B4201D34B01C01A524103098B4260
S1130D1001D30B01C01A5241C3088B4201D3CB004B
S1130D20C01A524183088B4201D38B00C01A52412E
S1130D3043088B4201D34B00C01A5241411A00D2DE
S1130D4001465241104670475DE0CA0F00D0494247
S1130D50031000D34042534000229C4603098B42B7
S1130D602DD3030A8B4212D3FC22890112BA030A3F
S1130D708B420CD3890192118B4208D389019211C1
S1130D808B4204D389013AD0921100E08909C30946
S1130D908B4201D3CB01C01A524183098B4201D348
S1130DA08B01C01A524143098B4201D34B01C01A33
S1130DB0524103098B4201D30B01C01A5241C308AB
S1130DC08B4201D3CB00C01A524183088B4201D31A
S1130DD08B00C01A5241D9D243088B4201D34B0035
S1130DE0C01A5241411A00D20146634652415B1077
S1130DF0104601D34042002B00D549427047634658
S1130E005B1000D3404201B5002000F005F802BD9C
S1130E100029F8D016E770477047C046FEE7C04681
S1130E200A4B10B519680200002901D1084919605C
S1130E301868084982188A4206D9FFF78BFB0C23ED
S1130E4003600120404210BD1A60FCE75C000020F2
S1130E50C8020020C8020020837802209842804102
S1130E6040427047437A0020013B012B03D9012003
S1130E700B7801330B70704710B5002003F04EFC63
S1130E80002803D00021080003F03CFC10BD000042
S1130E90024A1368013313607047C0468000002083
S1130EA037B5002002F048FBC02300240D4A9B0004
S1130EB013600D4A0D4D13600D4A200013600D4B55
S1130EC02C716C71AC711A68FA239B0053430A4964
S1130ED02B6003F071FC290001AA200003F0D2FC6E
S1130EE037BDC046189014541C901454D8000020E8
S1130EF000A0145484FEFF1FA800002010B5802415
S1130F00002003F09BFC0A4B64001C60094B072083
S1130F101C60094B1C6002F0A9FD062002F0A6FD2E
S1130F20200002F0A3FD002002F00BFB10BDC04620
S1130F30189014541C90145400A0145410B500209C
S1130F4002F004FB8023054A9B001360044A054910
S1130F501360002002F066FE10BDC0460CA01454BD
S1130F6010A014548400002010B5002002F096FE56
S1130F7080238220074A5B001360074A4000136005
S1130F8002F074FD0420FF3002F070FD002002F036
S1130F90E2FA10BD0CA0145410A014540023012034
S1130FA0344A10B51360344A34491360344A013367
S1130FB0FF331360334A1360334A1360334A1360B8
S1130FC0334A1360334A1360334A13600A78024089
S1130FD032484DD00360324A324813600022026026
S1130FE031480260314A1360314A1360314A136058
S1130FF0314A1360314A1360314A13600B78DB07BE
S113100003D50220FF3002F023FD092002F02EFD5B
S11310100C2002F02BFD052002F028FD082002F030
S113102025FD0620FF3002F021FD0E20FF3002F0E6
S11310301DFD8320400002F019FD0820FF3002F05E
S113104015FD0C20FF3002F003FD8220400002F069
S11310500DFD0420FF3002F009FD072002F006FD1B
S1131060062002F003FD8020400002F0FFFC10BDCA
S11310700260B0E70C9014541090145480FEFF1FCB
S113108014901454189014541C9014542090145414
S1131090249014543090145400A0145404A01454F4
S11310A008A014540CA0145410A0145414A01454E4
S11310B018A014541CA0145428A014542CA0145484
S11310C034A0145410B5092002F0D0FC10BD10B5A2
S11310D00C2002F0CBFC10BD384B10B5984243D025
S11310E029D8374B98424ED017D8364B98423FD028
S11310F06433984240D0C83B984217D1052002F08F
S1131100B5FC082002F0B2FC0620FF3002F0AEFC71
S11311102D4B186802F05FF810BD2C4B984241D05B
S11311206433984242D02A4B984230D02949002057
S113113001F0C6FDECE7284B984224D007D8274B92
S1131140984215D06433984216D0254BD4E7254BEA
S1131150984227D001D8244BE6E7C8231B019842C4
S113116024D0224B9842E1D1052002F071FC20E00A
S1131170052002F06DFCC4E7052002F077FC08208E
S113118002F066FCC0E7052002F062FCF7E70520E8
S113119002F06CFC082002F069FC0620FF3002F02B
S11311A057FCB5E7052002F053FCF3E7052002F0F5
S11311B05DFC082002F04CFCEFE7C046C4090000C7
S11311C0340800006C07000088FEFF1FFC080000C4
S11311D0980800007F640000540B00008C0A000093
S11311E0280A00001C0C0000B80B0000E40C0000EE
S11311F010B5FFF771FF092002F02AFC0C2002F061
S113120035FC8320400002F031FC10BD10B5FFF71F
S113121063FF092002F02AFC0C2002F019FC832051
S1131220400002F015FC10BDAF220C4B10B5C318E2
S11312309BB29200934202D8FFF7DAFF10BD084B2D
S1131240C3189BB2934202D8FFF7E0FFF6E702000F
S11312500449002001F034FDF0E7C046F8F8FFFF30
S1131260D8F5FFFF274F000010B5FFF72BFFFFF75E
S11312702EFF8320400002F0EBFB024B186801F0C4
S1131280AAFF10BD88FEFF1F10B50400002901D07D
S1131290FFF784FE0021022001F08CF821000420D5
S11312A001F088F810BD10B5012420000021FFF7DB
S11312B0EBFF21003C20FFF7E7FFF6E7F0B5040061
S11312C085B00E00170001219AB2002001F013F935
S11312D00390002C1CD01E49002001F0F1FA1D4C93
S11312E0206801F078FF1C49002001F0E9FA206829
S11312F001F071FF1949002001F0E2FA206801F0C1
S11313006AFF1749002001F0DBFA206801F063FF4F
S11313100025144C144923686268002000922A00B6
S113132001F0CEFC300001F027F9300001F098FE06
S1131330039922680020636800910C4901F0C0FC05
S1131340002F02DD380001F046FF0135E1E7C04619
S1131350B96000007CFEFF1FE16000000361000033
S1131360EA5A000000D00340286100003461000004
S1131370F0B591B01F0016AB0C91197817AB06921B
S11313801A7818AB1B7804000D931CAB1B780EA8BD
S11313900E931DAB1B88099321231B18DB7F0A9333
S11313A01FAB1B880F9320AB1B780B930B1C914234
S11313B000D9131CDBB20393069B002F06D1002B2C
S11313C006D15549002001F07BFC01E0002BF8D147
S11313D000260998FFF728FF2100002001F070FA89
S11313E0099C05960796049600230893089B199A6E
S11313F0934266DC039D2FE0E8B201210C9B9847E1
S1131400002846D1049B01330493099B9C4204D9D0
S1131410643CA4B22000FFF707FF002F24D00A9AEF
S11314207B7B9B1A5A425341059AD31805930B9B15
S1131430002B0AD0FB7A3A7B797BDBB201910092D4
S113144036492A00002001F03BFC1B9B002B02DDE7
S1131450180001F0C0FE0135039B1A9AEB1A9A4258
S1131460CADC089B0133C0E7069B0A9A1B7A9B1AC5
S11314705A425341059AD31805930B9B002BE4D091
S1131480069B2A001B7A2649DBB2380001F018FCBF
S1131490DBE7022810D12A002249002001F010FCC9
S11314A0079B013307930F9B9C42CED26434A4B2B2
S11314B02000FFF7B9FEC8E7033843425841361805
S11314C0C3E70E9B002B06D0039B0D9A0133DBB2BE
S11314D00393934288D9049A079B94461249634420
S11314E0002001F0EDFB322001F075FE0A9B059A05
S11314F000930E49049B002001F0E2FB322001F02E
S11315006AFE32000A49002001F0DAFB322001F0C1
S113151062FE11B0F0BDC0467F6400005F4F000062
S1131520844F0000994F0000AC4F0000C44F0000EE
S1131530F54F0000F0B591B00D9316AB0C9102CBB2
S113154004001F781AAB1B880E910F931BAB1E88E7
S11315501CAB1D78002865D01000FFF7EFFC601E5F
S1131560132863D8FFF7DAFA0A232B2D2F623133BD
S11315703537393B3D413F62434562470F9B0C9AE7
S113158007930D9B00920693189B2B4A05930E9B81
S11315902A490493199B2A48039331230293002375
S11315A00A97099608950193FFF7E2FE03E025499F
S11315B0002001F085F9FFF7D7FC11B0F0BD2249F6
S11315C0F6E72249F4E72249F2E72249F0E7224903
S11315D0EEE72249ECE72249EAE72249E8E7224913
S11315E0E6E72249E4E72249E2E72249E0E7224923
S11315F0DEE72249DCE70F9B0C9A07930D9B0092D0
S11316000693189B0A9705930E9B09960493199BBE
S113161008950393052302930023194A019319495A
S11316201948C1E7194901F04BF9C6E722001849E6
S1131630002001F045FBBEE77000002015250000E6
S1131640416100004F6100007A610000AB6100005D
S1131650DB6100000B62000038620000656200007C
S113166091620000BF620000EB620000186300009A
S113167044630000706300009D630000C9630000C0
S113168060000020DD2F0000F5630000016400000D
S11316902D64000002003038092805D91300613B8D
S11316A0052B02D8573A100070471300413B002025
S11316B0052BF9D8373AF6E770B501F01CF90400A8
S11316C001F019F9FF26050020003040FFF7E2FF82
S11316D0040028003040FFF7DDFF24012018C0B2C9
S11316E070BD70B501F007F9060001F004F90500BA
S11316F001F001F9040001F0FEF8FF22FA2364214D
S113170016401540303E14409B00303D4D4373431A
S11317105A39303C4C435B1910401B1930381818A7
S113172070BD000070B50C00160088B00CAA1578C6
S113173006A908800A4A05A805700A4D12682D6892
S11317404A6004AA167001930090230002950020B9
S113175002F0CCFB431E9841400008B070BDC04667
S113176074FEFF1F78FEFF1FF7B56A46CB1DDB082A
S1131770DB00D31A02AF9D4605000C00FFF790FB77
S1131780FA23002102AE9B002A0001930094330047
S1131790080003F0D3F80400FFF7B0FB2000BD46B7
S11317A0441EA0418000F2BD10B50249002001F0A2
S11317B087F810BD8D60000010B5094C0020210091
S11317C001F07EF82100002001F07AF8054900209C
S11317D001F076F80449002001F072F810BDC0460B
S11317E0944E0000C44E0000F54E0000F0B5B9B0B0
S11317F025AC072200212000FEF75EFFF94A0125EF
S11318002C92032215AB2F9317AB309319AB329361
S11318101DAB34931FAB359321AB369323AB1BAF76
S113182011A9379300202CAB1A712E91149333977E
S11318302570319401F078FE280001F075FE8021B6
S1131840E94B0902196001F0E5FC002300261A00A7
S113185019001800009501F055F8E449002001F042
S11318602FF8C82001F0B7FCE149002001F028F866
S1131870C82001F0B0FCDF49002001F021F8C820A5
S113188001F0A9FCDC4A2B000221DC4801F0E6FC53
S11318902900280001F0EEFC002002F07DFED84B68
S11318A029A90E818E72300029932A9502F0A0FE98
S11318B02A00310011A8FEF7FFFE4820259B08A945
S11318C01993A28809180A80A279023008A9091874
S11318D00A700322063808A909180A701B93A28803
S11318E008A9BA80A2790A38BA7105223A70159308
S11318F0A28802270A87A27909180A70342108AA43
S1131900521817701793A288063008A909180A807C
S1131910A279C01908A909180A700422063808A96E
S113192009180A701D93A2881C3008A909180A8096
S1131930A279C01908A909180A700822063808A94A
S113194009180A701F93A2880C3008A909180A8084
S1131950A279C01908A909180A700921063808AA29
S1131960121811702193A3880C3008AA121813803E
S1131970A379C01908AA121813700A23063808AAF2
S1131980121813706C2208AB9B181E7014AA2B003B
S11319902FA801F029FE3100380000F00BFD994911
S11319A0994802F03BF8FFF7F9FA0820FF3002F0FB
S11319B04FF8C82001F00FFC0820FF3002F056F861
S11319C0C82001F008FC0820FF3002F041F8C820CC
S11319D001F001FC0820FF3002F048F8C82001F0B3
S11319E0FAFB0820FF3002F033F8C82001F0F3FBC3
S11319F00820FF3002F03AF884491D2000F076FDFB
S1131A008349402001F0E8FAFFF72EFC01F010FAB8
S1131A1080231B020993330008960A960C9603331D
S1131A200B937C49002000F04BFF7B4C7B4E2068DD
S1131A3001F0D1FB7A49002000F042FF206801F058
S1131A40CAFB0A9B089A7749002001F039F92068FB
S1131A5001F0C1FB744D754F75492A6809983B68BC
S1131A600968019000910020724901F029F9206869
S1131A7001F0B1FB704B714A0020D2587369316890
S1131A8000916F4901F01CF9206801F0A4FB6D4935
S1131A9000200A784B788979D2B2DBB200916A4986
S1131AA001F00EF9206801F096FB664B67491A7A3B
S1131AB01B7E0978D2B2DBB200910020644901F0A8
S1131AC0FFF8206801F087FB624B63491A785B7862
S1131AD00969D2B2DBB200910020604901F0F0F84C
S1131AE0206801F078FB5E4B54499A785D4BD2B282
S1131AF0CB587168002000915B4901F0E1F820683F
S1131B0001F069FB594B5A491A6811AB1B78002044
S1131B1001F0D6F8206801F05EFB5649002000F081
S1131B20CFFE206801F057FB5349002000F0C8FEA7
S1131B30206801F050FB5149002000F0C1FE2068EC
S1131B4001F049FB4E49002000F0BAFE206801F084
S1131B5042FB4C49002000F0B3FE206801F03BFB3F
S1131B604949002000F0ACFE206801F034FB4749ED
S1131B70002000F0A5FE206801F02DFB4449002060
S1131B8000F09EFE206801F026FB4249002000F090
S1131B9097FE206801F01FFB3F49002000F090FEF3
S1131BA0206801F018FB0A9A0B9B3C49002001F0C5
S1131BB087F8206801F00FFB3949002000F080FE0F
S1131BC0206801F008FB3749002000F079FE206806
S1131BD001F001FB3449002000F072FE206801F09E
S1131BE0FAFA63E0650E0000B40200200A50000017
S1131BF0255000002B50000064FEFF1F90FFFF1FC4
S1131C00E0070100A0FEFF1F90FEFF1F70000020F0
S1131C1060000020325000007CFEFF1F00D0034013
S1131C20565000008850000074FEFF1F84FEFF1F02
S1131C308CFEFF1FBC5000003C10000000700440EC
S1131C40F4500000004006402A51000000500640B5
S1131C505951000000E0074000ED00E08951000008
S1131C6000D0074034100000C35100008000002061
S1131C70FB51000029520000335200005052000072
S1131C806C52000088520000A5520000CC520000A3
S1131C90EB5200000A530000355300005853000073
S1131CA087530000A3530000C75300009749002046
S1131CB000F006FE206801F08EFA9549002000F03D
S1131CC0FFFD206801F087FA9249002000F0F8FD3A
S1131CD0206801F080FA9049002000F0F1FD2068AE
S1131CE001F079FA8D49002000F0EAFD206801F046
S1131CF072FA8B49002000F0E3FD206801F06BFAD2
S1131D008849002000F0DCFD206801F064FA86496F
S1131D10002000F0D5FD206801F05DFA8349002021
S1131D2000F0CEFD206801F056FA8149002000F051
S1131D30C7FD206801F04FFA00F0DDFDFF22060028
S1131D4002406B2A00D135E200DD92E0652A00D121
S1131D50D5E11FDC622A00D1AEE10BDC0A2A00D1F6
S1131D609DE2612A00D10BE17249B4E1724B0C93FC
S1131D70012355E6632A00D1B1E1642AF4D16F4905
S1131D80002000F09DFDFFF7ACFC6D4B6D49186021
S1131D901A68A0E1682A00D1F9E10FDC662A00D1B3
S1131DA0B7E1672AE0D16849002000F089FDFFF718
S1131DB098FC83B208931A0064498CE1692A00D123
S1131DC0EDE16A2AD0D10A9A6149002000F078FF37
S1131DD000F091FD5F490400002000F071FD00F067
S1131DE08AFD5D490D90002000F06AFD00F083FD3E
S1131DF05A490E90002000F063FDFFF772FC584929
S1131E000700002000F05CFDFFF76BFC554906005D
S1131E10002000F055FDFFF764FC53490500002045
S1131E2000F04EFDFFF748FC099B0F9001930B9ABD
S1131E300A9B4E4902970096002000F041FF0F9A3A
S1131E40303C0692089A631E9C4104920E9AADB2ED
S1131E50303A511E8A4101920D9AE3B2303A00920F
S1131E60059503960297099A0A990B98FFF762FB66
S1131E70D7E5722A00D1ECE10FDC6E2A00D1DFE154
S1131E8000DA9DE16F2A00D1DFE1702A00D06BE710
S1131E900021022000F08EFAC3E5752A00D1E3E1A7
S1131EA006DC732A00D1D7E1742A00D1B9E55BE7D7
S1131EB0782A00D1E6E17A2A00D055E72C4900209F
S1131EC000F0FEFC0998FFF739F82A49002000F0D9
S1131ED0F7FC00F010FD28490500002000F0F0FC9C
S1131EE0FFF7FFFB86B232002449002000F0E8FE31
S1131EF0206801F070F9E9B268394D426941099BE3
S1131F00C9B232000120FFF7D9F9C046EB530000F3
S1131F1005540000205400003E5400005B540000AF
S1131F207A54000099540000B3540000DE540000B9
S1131F30FE540000A459000070000020565A00000E
S1131F408CFEFF1F855A0000A65B0000D25B0000D8
S1131F507B5C0000B55C0000DE5C0000F75C000008
S1131F60365D0000625D00009A5D0000CB5D0000FC
S1131F70995F0000B25F0000DB5F00002360000097
S1131F80C849002000F09CFCC749002000F098FCE0
S1131F90206801F020F9C549002000F091FCC449F3
S1131FA0002000F08DFCC349002000F089FC20686B
S1131FB001F011F9C049002000F082FC206801F012
S1131FC00AF9BE49002000F07BFC206801F003F907
S1131FD0BB49002000F074FC206801F0FCF8B9490A
S1131FE0002000F06DFC206801F0F5F8B6490020EF
S1131FF000F066FC206801F0EEF8B449002000F01F
S11320005FFC206801F0E7F8B149002000F058FCBB
S1132010206801F0E0F8AF49002000F051FC20688E
S113202001F0D9F8AC49002000F04AFC206801F026
S1132030D2F8AA49002000F043FC206801F0CBF854
S1132040A749002000F03CFC206801F0C4F8A54931
S1132050002000F035FC206801F0BDF8A249002002
S113206000F02EFC206801F0B6F8A049002000F032
S113207027FC206801F0AFF89D49002000F020FC07
S1132080206801F0A8F89B49002000F019FC2068A2
S113209001F0A1F800F02FFCFF220240352A00D104
S11320A064E66C2A00D05FE69349002000F008FE45
S11320B0924B0C931423B3E49149002000F000FCEC
S11320C0FFF70FFB28602A688E4B9A4201D18E4B92
S11320D02B602A688D49002000F0F2FDA1E48C49B0
S11320E0002000F0EDFBFFF7FCFA38603A68854BFE
S11320F09A4201D1844B3B603A688649EBE78649B2
S1132100002000F0DDFBFFF7D7FA84490A900200B3
S1132110E1E78349002000F0D3FBFFF7CDFA814CBF
S1132120020021000600002000F0CAFD7E490020C4
S113213000F0C6FBFFF7C0FA12AF020038702100AE
S1132140002000F0BDFD7949992E00D1A2E02B6852
S113215027AC089828932680FFF766F80998FEF7BD
S1132160EDFE0A9B13AA1370714B21001B6800201B
S1132170029301230097019301F0B8FE021E03D0DD
S11321806C49002000F09CFDFEF7EEFE49E46A492C
S1132190002000F095FB0120FFF70EFB41E46749A6
S11321A0002000F08DFBFFF79CFA83B209931A001C
S11321B0634990E76349002000F082FBFFF773F85E
S11321C05D49002000F07CFB5F49002000F078FBB3
S11321D0FFF772FA27AD28705C49002000F070FB0D
S11321E0FFF77FFAF6B204002B78089A6C2E16D10A
S11321F00192099A564900920200002000F060FD05
S11322000025A54201DBFFF70CFC27AB1A7800235D
S113221001210093FF20FFF785FA0135F1E70092D1
S11322204C490200002000F04BFD0025A54201DBD3
S1132230FFF7F7FB012127A8FFF796FA0135F5E729
S11322400898FEF7F1FFFFF7ECFBFFF70DF8FFF737
S1132250E8FB002108201DE63749002000F030FB90
S1132260FFF7A2FAFFF7DDFB0C9B3B49002B11D0D3
S11322703A49002000F024FBFFF71EFA0C9B18706B
S1132280FFF7CFFB3649002000F01AFB1E4800F090
S1132290A2FF3449002000F013FBFFF7C2FB3249D0
S11322A0F8E7C046115500001C5500005A550000BF
S11322B09C550000DD5500001D5600004D560000E1
S11322C08A560000C9560000075700004457000012
S11322D082570000BF570000FE5700003B58000023
S11322E064580000A1580000D85800001559000097
S11322F0525900007F5900009359000060000020EB
S1132300C05900000F27000010270000EE590000FC
S11323100E5A00003C5A0000A05A0000D65A000091
S1132320ED5A0000205B0000365B00005F5B00009C
S113233078FEFF1F855B0000F45B0000225C000058
S11323405E5C0000085E00002B5E00004A5E000038
S11323506A5E0000BC5E0000FA5E0000385F0000A8
S1132360705F00008F5F00005B6000001FB5040019
S113237001A9002002F064F9694601A802F09EF860
S1132380009B01A91C196846009402F01FF8012261
S113239001A9002002F080F91FBD00000022034BB8
S11323A01A608022024B1206DA67704700A01C589C
S11323B004E100E010B50A230C0008281CD8FEF73D
S11323C0ADFB051D2A3F54676C6F5C0001F0A4FA55
S11323D00523012810D0FFF7E1FF2000FFF7C6FF17
S11323E00021080001F022F901210400002000F07E
S11323F041FF002C22D00923180010BD01F08CFAF3
S113240006230128F8D0FFF7C9FF2000FFF7AEFF2D
S113241000210120E6E701F07FFA08230128EBD030
S113242000F09EFF002803D00121002000F022FFCD
S11324300021022001F0FAF80028DCD10023DBE7B8
S113244001F06AFA07230028D6D0FFF7A7FF20007F
S1132450FFF78CFF0021032001F0E8F8040001F0ED
S11324605BFA01210028C4D1C1E7FFF797FF2000E0
S1132470FFF77CFF00210420EEE70021082001F093
S1132480D5F80028B7D10121080000F0F3FED5E704
S11324900021052001F0CAF8ADE700210620F9E784
S11324A000210720F6E700000B0000B50C4A89B0B4
S11324B0127806A90A800B4A12684A6005AA1070AD
S11324C004A80370084B1B680090029301230020AA
S11324D0019301F00BFD431E9841400009B000BD7B
S11324E07000002074FEFF1F78FEFF1FC223FF331D
S11324F008704B60704770B50D0001000920FFF7AC
S1132500D3FF290004002A20FFF7CEFF2043C0B2E6
S113251070BD00000B00FF2110B588B005AA117032
S113252018281AD8092801D206281AD80E4910707A
S11325300C7806A90C800D4C0D48246800684C608A
S113254001930C4B029000930020012301F0DBFC6B
S1132550431E9841400008B010BD01001D391429E4
S1132560E4D90320F7E7C0467000002074FEFF1F83
S113257078FEFF1F7800002070B5022104000120BE
S1132580FFF7C8FF304D2A7A6B7AD2B2DBB200284B
S113259020D02E49002000F093F902210320FFF7F8
S11325A0B9FF2A7A6B7AD2B2DBB2002825D0274948
S11325B0002000F085F902210520FFF7ABFF2A7AFD
S11325C06B7AD2B2DBB200282AD02049002000F076
S11325D077F970BD002C03D01D4900F071FBDCE7D6
S11325E09B0892011A4380239B015A40194B1A49B4
S11325F0D218200000F064FBCFE7002C03D014496C
S113260000F05EFBD7E79B0892011A4380239B01ED
S11326105A40104B1049D218200000F051FBCAE771
S1132620002C03D00A4900F04BFBD2E79B0892012F
S11326301A4380239B015A40064B0749D2182000B5
S113264000F03EFBC5E7C04670000020AC6400000B
S1132650B364000000E0FFFF2F6100000369C2685B
S1132660934201D880681B18013B981A7047F7B54C
S1132670C36814000193019A836805009E1A436895
S11326800F009818A64206D92200FDF7D1FF019B3E
S11326901C19EC60F7BD3200A41BFDF7C9FFB91982
S11326A022006868FDF7C4FFF3E70023F7B50600CE
S11326B01700C568019100933369B4689D421FD225
S11326C0013B5B1B641BBC4200D93C009C4200D90B
S11326D01C007368220058190199FDF7A9FF009B9B
S11326E02D191B190093019B3F1B1B190193B36800
S11326F0AB4200D10025F560002FDDD10098FEBD6E
S11327001B19DDE7022310B50F4C104A23616361E6
S11327100F4BA261E361C823A2640E4A2362E26400
S113272000230422A3626362E362A3656365E36535
S11327302265E01D0849FEF7DBF808492000FEF792
S1132740D7F82023A37110BDE0000020C36400006B
S11327505C01002058010020CC640000D06400001B
S1132760F0B5274B85B01B78019002911500002B22
S113277001D1FFF7C7FF1823019A00265343204ACB
S1132780D3185A6D9C6D0392944219D91B6D2E0077
S11327901B1B9D4200D91E001827019B32005F437A
S11327A0174B0298DF19FB6CAD1B1919FDF740FF9D
S11327B0029BA4199B1902933B6DA34200D10024F0
S11327C0039B1B1B9D4200D91D00002D0CD0182318
S11327D0019A029853430A4A7619D318D96C2A00ED
S11327E00919FDF725FF6419002E05D01822019B55
S11327F05A43034B9B189C65300005B0F0BDC0469E
S1132800E000002010B50B00EFF31084012181F3E8
S113281010881900FFF7A4FF84F3108810BD00008E
S1132820F8B516001822451C55434243164B0F00B9
S11328305D199B18DC6A012C12D0002C03D0022CE9
S11328401BD000240AE02800FFF708FF864205D8C1
S1132850320039002800FFF70AFF34002000F8BDD9
S11328602800FFF7FBFE3400864200D90400220052
S113287039002800FFF7FBFEF0E732002800FFF7DD
S113288014FF0400EAE7C046E0000020F8B50B4B53
S113289005001B780E001700002B01D1FFF732FF53
S11328A0EFF31084012181F310883A0031002800ED
S11328B0FFF7B6FF84F31088F8BDC046E00000209F
S11328C070B5050008000C00FEF71AF8210002009C
S11328D02800FFF7DBFF70BD13B56B46DC1D01223A
S11328E021000020FFF78EFF012801D1207816BDBA
S11328F001204042FBE710B5FFF7EEFF0028FBDBA9
S113290010BD0000F7B5164C0193237805000F00A5
S11329101600002B01D1FFF7F5FE2369AB421CD949
S1132920EFF31082012181F31088002D0CD01823BD
S1132930691C59436B43675061184E600199E31851
S1132940196200219962596218235D43089B641936
S1132950E36282F310880020FEBD01204042FBE7C1
S1132960E0000020826810B504004068531C8342D4
S113297005D820688154A360E3680133E360A2684A
S113298063689A4209D121682069FFF77FFFA36831
S1132990984203D001235B42E36010BD0023A3608F
S11329A0FBE70000F0B505001F000800012685B014
S11329B00A9C02910092009B98421AD20196BE4250
S11329C000D2019701230B9A1A4003920CD1002CD8
S11329D00AD00B9B20269B0703D51036002F00D06E
S11329E0103E019BA34209D3EB68002B10DA05B01B
S11329F0F0BD0099FEF79CF80136DCE731002800B1
S1132A00FFF7B0FFEB68013C002BEDDB002CE8D1B5
S1132A100126012F03D9013F009B5E43F9E73100F2
S1132A200298FEF785F8009B8342F5D9029831009D
S1132A30FEF704F90F4B0291195C2800FFF792FF8F
S1132A40EB68002B05DB30000099FEF771F8061ED9
S1132A50ECD1039B002BCAD0002CC8D0019BA3420D
S1132A60C5D220212800FFF77DFFEB68013C002B35
S1132A70F2DABCE7D7640000F0B59FB00EAB09935F
S1132A8040230A9300230E00150007900B930D902A
S1132A900C9331780136002957D0252947D10027D6
S1132AA00220082205E02D2B17D0302B08D1074334
S1132AB00E003378711C2B2B12D0F4D8232B11D099
S1132AC000240A213378721C1800303809280BD8E6
S1132AD04C43303C1C191600F4E701231F43E7E77D
S1132AE00423FBE71743E3E7002103912E2B0ED1C8
S1132AF016000A203278711C1300303B092B06D8CB
S1132B00039B0E004343303BD3180393F2E7317821
S1132B1004220B0001369343682BF8D064293DD07E
S1132B2009D858292CD0632932D025290AD109A8DB
S1132B30FFF718FF06E0732900D1A6E01CD870291E
S1132B4000D1B3E00C9B002BA3DA0C9B0393002B66
S1132B500FDD0B9A002A03D00EA90798FFF796FE03
S1132B600C9B03930B9B0493049A039B944663442A
S1132B700C930C981FB0F0BD75297DD07829E1D154
S1132B80296801970B1D2B60039B009410227AE0A7
S1132B902B6819681A1D2A60C9B2C8E72B681A1D68
S1132BA01B682A60DA179818049301235040059390
S1132BB0092848DC039B059A0693934200D20692A7
S1132BC0002C06D0049B002B02DB04231F4200D000
S1132BD0013CBB0702D5039B002B04D001231F42F9
S1132BE001D1002C3FD10C9B002BABDB049B002BB1
S1132BF03DDA2D215B42049309A8FFF7B3FE0C9B39
S1132C00002B9FDB03233B40022B0FD1039B002BA4
S1132C100CD1002C52D0069BA34207D2302109A824
S1132C20FFF7A0FE0C9B013C002BF2DA0C9B002B5F
S1132C3000DA87E70A22039B04990197009409A804
S1132C40FFF7B0FE7EE70A21FDF7FCFF059B013389
S1132C50ADE7202109A8FFF785FE0C9B013C002B62
S1132C60C1DB002CC2D0069BA342F2D3BBE70423F2
S1132C701F42C4D02B21BFE70A22296801970B1DEC
S1132C802B60039B00940968D9E72B681A1D2A60FE
S1132C901C6821780134002900D153E709A8FFF703
S1132CA061FE0C9B0393002BF3DA4BE729680B1DA1
S1132CB02B60002301930833009367E70024B9E7EE
S1132CC00EB403B503AB02CB01AA0193FFF7D4FE04
S1132CD002B008BC03B0184710B5002000F0D4FEC1
S1132CE010BD10B5002001F035FD10BD082310B54E
S1132CF0164A9178194202D091780B439370882137
S1132D0000222220124B49015A501249124C0870D9
S1132D108020124940025850196811480140196036
S1132D20195910480840C0218904014319518021D0
S1132D300D4B1A7219767F391A7059700B490A7043
S1132D400C3299791142FCD110BDC04600D0074025
S1132D500070044000E0074004100000441000002C
S1132D60FFFFF3FFFFFFFFF0004006400050064066
S1132D701349144810B5814205D00022124B9B0818
S1132D809B009A4210D1114B114A996000231149BA
S1132D901148521A9A420BD1002318000F49104AC5
S1132DA0521A9A4208D110BD84588C500432E8E774
S1132DB0CC5CC4540133EDE7CC1820700133F0E748
S1132DC000000000000000000000000000ED00E032
S1132DD068680000C066000000FEFF1FA8FFFF1F18
S1132DE0C402002037B50E24FF340500200000F093
S1132DF02FFE0A2000F0EFF9200000F037FE0C202F
S1132E0000F034FEFA23084A9B0015700021019358
S1132E10012308000093054B01F090FD05002000FC
S1132E2000F016FE28003EBD2502002024020020EA
S1132E30C02310B58024634A9B001360624A640077
S1132E401360FEF72DF8614B20001C60604B1C6082
S1132E50604B1C6000F0FCFD642000F0BCF9200015
S1132E6000F004FE642000F0B6F9200000F0F0FD4C
S1132E70642000F0B0F9AE20FFF7B4FFA020FFF704
S1132E80B1FF7220FFF7AEFFA120FFF7ABFF0020D8
S1132E90FFF7A8FFA220FFF7A5FF0020FFF7A2FF7E
S1132EA0A420FFF79FFFA820FFF79CFF3F20FFF718
S1132EB099FFAD20FFF796FF8E20FFF793FFB02018
S1132EC0FFF790FF0B20FFF78DFFB120FFF78AFF7C
S1132ED03120FFF787FFB320FFF784FFF020FFF7CF
S1132EE081FF8A20FFF77EFF6420FFF77BFF8B20A2
S1132EF0FFF778FF7820FFF775FF8A20FFF772FF4E
S1132F006420FFF76FFFBB20FFF76CFF3A20FFF749
S1132F1069FFBE20FFF766FF3E20FFF763FF8720AF
S1132F20FFF760FF0620FFF75DFF8120FFF75AFFE0
S1132F309120FFF757FF8220FFF754FF5020FFF73F
S1132F4051FF8320FFF74EFF7D20FFF74BFFAF209B
S1132F50FFF748FF2620FFF745FF0120FFF742FF58
S1132F602520FFF73FFF0020FFF73CFF0020FFF77D
S1132F7039FF5F20FFF736FF3F20FFF733FF2220A2
S1132F80FFF730FF0020FFF72DFF0020FFF72AFF97
S1132F905F20FFF727FF3F20FFF724FF0020FFF704
S1132FA021FF3F20FFF71EFF0020FFF71BFF00203B
S1132FB0FFF718FF3F20FFF715FF0020FFF712FF70
S1132FC0002010BD209014542490145434A01454A0
S1132FD03090145400A01454087070477FB50B4B04
S1132FE004A91B780B800A4B1B684B60094B1B68B8
S1132FF001900293084B009300231A00180000F07C
S113300082FF431E9841400007B000BD60000020CD
S113301074FEFF1F78FEFF1F6800002010B50C002F
S11330200C4B88B01B7806A90B8005AA0A4B1070BC
S11330300A481B6800684B6004AB1C7002900020B7
S113304000930190012300F051FF431E984140007A
S113305008B010BD6000002074FEFF1F78FEFF1F43
S113306013B5012200210220FFF7D8FF0220FFF749
S1133070B5FF3E21114C0020237A627A5B0192084D
S11330800A401A4393000E49FFF71AFE0122002159
S11330901000FFF7C3FF0220FFF7A0FF6421227A8C
S11330A0637A12021A430A2312B251435343009122
S11330B000200449FFF704FE13BDC0466000002051
S11330C0E76400001A650000002341704360037048
S11330D083601800704710B5437804000120FF2B6B
S11330E008D000F049FA63780133DBB2637000F072
S11330F037FA002010BD0020704770B504000D00A1
S113310000F03AFAE1682943E16000F029FA00206E
S113311070BD000000220A4B9A641A0040329A6380
S11331201A0030329A621A0020329A611A00103260
S11331309A60044A1360044B9B60DB607047C0468E
S11331402C020020280200207C0200200022024BD6
S11331501A60186880B270470C007C5070B54378D0
S113316004000D00002B0BD0002500F005FA637855
S1133170013BDBB26370257000F0F2F9280070BDEA
S113318002200029FBD02378002B17D0FFF7DEFFA5
S11331906368A268834204D8C01A824206D303201B
S11331A0EDE7C01A80235B02C018F6E700F0E4F9EB
S11331B00023237000F0D4F90220E0E74B1CEED08A
S11331C000F0DAF90123237000F0CAF9FFF7BEFF1B
S11331D0A5606060E3E770B50500FFF7B7FF8026E0
S11331E004007602FFF7B2FF844203D8001B854235
S11331F0F8D270BD331B1818F9E710B5012801D1B6
S113320000F0BAF910BD10B5012801D100F0A8F9F9
S113321010BD000010B5FFF77DFF01230020084A10
S113322008491360084A094C1060086004212160B1
S1133230074C216007490B6007490860136010BD03
S113324038800450000084500000045000000451F1
S11332500400045104000C500000045310B5044C45
S1133260206021710020A2602373637310BDC046E7
S11332708C020020F0B587B004AB384E0190029167
S11332801871597133790427834226D90027337B77
S11332903D007373012304AA937103932F4C237B82
S11332A0AB421DD8002F02D0029B012B45D1012037
S11332B0FFF7A3FF0C20019B00255843336818181F
S11332C000F0BCF8019B012073710226FFF79BFFFD
S11332D004AB9E71237BAB4219D8380007B0F0BD14
S11332E0A268AB009B58002B0ED01A7903990A42AE
S11332F00AD01A68996805A89047002804D0029B50
S113330065730527002B18D00135EDB2C6E7A26816
S1133310AB009B58002B0DD01A7932420AD01A68A0
S1133320996805A89047002804D0029B6573062776
S1133330002BD2D00135EDB2CCE7002304AA93715F
S1133340013DEDB2FF2DC8D0B268AB009B58002BF5
S1133350F6D01A68996805A89047F1E78C02002016
S1133360014B58797047C0468C02002013B5040005
S1133370002021780190022920D0032922D001299C
S113338025D1227901AB144800F0B4FF002814D1F0
S1133390A3795A1E9341114ADB01137063785A1EB4
S11333A093410F4A5B001370A2780E4B1A70E278B7
S11333B00D4B1A7062790D4B1A7016BD227901AB50
S11333C00100E0E701A9044800F0D6FFDEE701A907
S11333D0014800F073FFD9E70040064018408653C7
S11333E000408650004006500140065018401650D8
S11333F04309074A9B009B18F822C0051205104098
S11334008022520510431843002303607047C046CE
S113341028800440F8214309074A9B009B180905AA
S1133420C2051140802252050A4313431F22104053
S11334301E3A82401A60704728800440072373B5FF
S1133440009300230400104D1A000121280001F00C
S113345073F92000FFF78AFF637A217A009300232F
S113346028001A0001F068F9E379084A9B04136004
S1133470074BA17A1D68280000F09AFF2800E17A22
S113348000F09DFF002076BD0070044000700C59D0
S1133490B865000010B5054800F0D2FE044B196869
S11334A0C9B20131FDF744FB10BDC04600400640DF
S11334B044801C5E10B5FFF7EDFF10BD10B5054844
S11334C000F0BEFE044B1968C9B20131FDF730FBB0
S11334D010BDC046004006404480145810B5FFF7A4
S11334E0EDFF10BD0B4B1B68DBB2022B0CD0032B82
S11334F00DD0002B01D000207047074A10688022AD
S113350012029042F7D1F7E7044B1868F4E7FA2067
S11335108000F1E700700C59B4020020B8020020CA
S113352010B5FFF7DFFF10BD10B5024B185CFFF7B5
S113353071FF10BD6765000010B57620FFF76AFFC4
S113354010BD10B57620FFF753FF10BD10B56620EF
S1133550FFF760FF10BD10B56620FFF749FF10BDEF
S1133560044A1368002B04D0013B1360002B00D1E4
S113357062B670479C02002072B6024A1368013397
S1133580136070479C02002010B5064C064801F0F9
S113359067FB042801D1002010BD013C002CF5D1AB
S11335A00320F9E7EA03000000E0074010B50B4BE5
S11335B00B490A78002A07D0084C0A4801F050FB4E
S11335C0012806D1002003E0013B002BF1D10320A8
S11335D010BD013C002CF0D1F9E7C046EA0300001D
S11335E002D0075100E00740F7B507000E001500B0
S11335F001930120002F15D0002913D0FFF7FDFD02
S1133600094C102200212000FDF756F8276026718E
S1133610002D03D0019BA560237363730120FFF782
S1133620F2FD0020FEBDC046A0020020F0B5B44C5F
S11336308DB003900291237B01206373FFF7DDFDBE
S11336402379039A934206D80120FFF7DCFD022771
S113365038000DB0F0BD039A23689200D35809AC2A
S11336601D780193029B2A002372039B2370019B04
S1133670636002239A430492012A01D0052D0AD1E2
S11336800121A04801F03EFA002807D10120FFF7EC
S1133690BAFD0127DCE70321072DF2D80123002717
S11336A063723C000593964E337BA34231D80120CC
S11336B0FFF7A9FD944800F0E7FD049B012B4CD1D2
S11336C00138C0B2022804D8FFF708FF8F4B984294
S11336D036D9029B012B01D0002F00D106270120EF
S11336E0FFF78BFD0023012609AD6B72013CE4B2A8
S11336F0FF2C00D1ABE0824BA2009B68D358002B77
S1133700F4D01A793242F1D01A68996828009047A7
S1133710ECE7B268A3009B58002B0ED01A790599E8
S11337200A420AD01A68996809A89047002804D068
S1133730029B74730427012BB9D10134E4B2B2E7BC
S1133740FFF7A8FE724EB042C3D8FFF7B7FEB042EF
S1133750BFD8FFF7AFFEB042BBD8029B012B00D00D
S1133760C9E00A2D00D9C4E02800FDF7D7F9060AFC
S11337700D1E8CA27F862F747A00002207AB1A706C
S11337802FE007AB0322FAE75E4801F069FA01284B
S113379008D000215B4801F0C5F9FFF707FF071EB9
S11337A000D055E707AB0122E9E7564801F058FA83
S11337B0042808D00221534801F0B4F9FFF7E4FECD
S11337C0071E00D044E707AB0422D8E7072207AB63
S11337D01A7000225A70019AD2789A70019A12795A
S11337E0DA702B00083B07A9022B05D8019B5B79F3
S11337F08B71019B9B79CB71019B5B78002B0AD069
S1133800012D08D9019B02229878424B002853D0FD
S1133810186902431A613B4801F0A8F9002800D056
S11338200327002D4CD1FFF7C1FE071E00D00FE780
S113383000270120FFF7E1FC039B314D0024AB730B
S1133840022309AE737201932B7BA3423DD801205E
S1133850FFF7D9FCFCE6072207AB1A70063A5A7048
S1133860BFE7072207AB1A70043AF8E7022207AB56
S11338701A70013A1A715A71B3E70222012107AB97
S11338801A701971F7E70222002407AB1A701D4859
S1133890013A1A715C7101F0E3F90128A1D0210009
S11338A0184801F03FF9FFF781FE0700A04298D0C5
S11338B0CEE607AB052262E7186990431861AAE7D0
S11338C0012DB6D1FFF760FEAFE7AA68A3009B58AD
S11338D0002B0BD01A7901990A4207D01A6899680B
S11338E030009047002801D005276C730134E4B2FE
S11338F0AAE70327ACE6002F00D0F0E631E7C04684
S1133900A002002000E007400040064040420F00B3
S113391080841E0000ED00E010B5064801F0A0F917
S11339200023012803D00133042800D00A331800EF
S113393010BDC04600E00740F7B5FF2403681C4AE9
S11339401D0A25401C40AB009F581A4A06009B588C
S113395028000193FFF7E8FD00222100380001F060
S113396087F9019BA400E418842332795B0523437F
S113397052001A60802372795B0523431A609023F6
S1133980B2795B05234312011A60F2790A4B1C4396
S113399013042360002A0AD0084B5B57002B06D07F
S11339A01F2213401E3A9A401300054A1360F7BDC4
S11339B0BC650000C465000000001818CC65000058
S11339C000E100E0F8B5FF2405000368114A180A75
S11339D020401C4083009F580F4A9E58FFF7A4FDC7
S11339E038002100012201F043F96A6821003800FF
S11339F001F04DF988232A7AA400A4195B05234316
S1133A0092001A6098235B051C436B7A9B01236028
S1133A10F8BDC046BC650000C465000070B50C006C
S1133A20002807D1002C0FD170BD05000835FFF721
S1133A3083FF280003680133F7D1F3E72500200052
S1133A400C35FFF7BFFF2C0023680133F6D1EBE7F9
S1133A50FF22030A134004499B00595801231040D4
S1133A6083404B607047C046BC650000FF22030AD8
S1133A70134004499B0059580123104083408B6034
S1133A807047C046BC650000084B8200D25894239E
S1133A9010B502325B0513431B78002B02D000F0F3
S1133AA03FFA10BD00F092FAFBE7C0466C650000D7
S1133AB0020080230C325B0513431A78002AFCD0E1
S1133AC00171704770B50D00084B8000C458200088
S1133AD029001830FFF742FB0328F8D0002801D052
S1133AE004232374207CC0B270BDC046B002002001
S1133AF010B5104B8000C458E37C002B05D0237C08
S1133B00052B02D0237C042B0BD10B4B1858982384
S1133B10821C5B05134300221A7001F027F901236C
S1133B206374A37C002B03D020001830FFF7D3FA72
S1133B3010BDC046B00200206C650000F0B5060060
S1133B4017008200354889B0105805930190344815
S1133B500EAB1458002007AA1080A27C1B78039295
S1133B6001225340E274A2741A4004928A0A029217
S1133B70CDB21E2A01D1AC460D0A029A6D00EDB2F7
S1133B8000211E2A02D08F4200D159B20D4302995E
S1133B90EDB207AB1D7001221E2902D162465A7094
S1133BA00222A360E26029000198FFF781FF0F99C8
S1133BB03000FFF787FF237C002B0CD1002F0AD0A5
S1133BC0059BA760E36039780198FFF771FF0F99AF
S1133BD03000FFF777FF237C002B17D1049B002BC9
S1133BE014D0029B1E2B01D0002F0FD000230127DD
S1133BF0A3600198E76001F0A7F839000198294310
S1133C00FFF756FF0F993000FFF75CFF0023207C7D
S1133C10E374039BC0B2A37409B0F0BD6C650000EB
S1133C20B0020020F7B583000193184B8200D558E9
S1133C3007000E000124002D26D1154B2900D3586E
S1133C40300024220193FCF737FD3000290018309E
S1133C50FFF73AFA3800FFF779FC019801F01FF8F2
S1133C600A4BBA00D6501F220A4BDB5D13402200D8
S1133C709A40094B1A609C22019B5205023313435C
S1133C80802274742C001A702000FEBDB002002043
S1133C906C6500007065000000E100E0F7B50E4EB1
S1133CA08400A359002701930C4B0500E2589C2380
S1133CB002325B0513431F70FFF74DFC084B01985C
S1133CC05A5D1F231A401E3B9340064A1830D3679F
S1133CD0FFF711FAA751F7BDB00200206C65000090
S1133CE07065000004E100E00A4B800070B5C5581F
S1133CF04B686A690C0093420BD0074BC658FFF718
S1133D00DDFB002301006268300000F0D7FF636828
S1133D106B6170BDB00200206C650000F0B587B027
S1133D2004920593334A0FAB1E7883009C58039189
S1133D30627C0700002A03D10320207407B0F0BD81
S1133D40002E01D11E220E922B4A0399D55800232E
S1133D503800E360A360237423606374A674FFF7E0
S1133D60C3FF90231021AA1C5B05134319708423FD
S1133D70E91C5B050B430221197098235B0513436F
S1133D8002934023029A2800137000F0DDFF039B86
S1133D90049A19880E9B3800019301230093059B14
S1133DA0FFF7CCFE0D9B002B17D0237C002B11D1E9
S1133DB00C9B2800A3600D9BE3600C9B1978FFF714
S1133DC077FE002E03D00E993800FFF77BFE207C8F
S1133DD0C0B2B3E7237C042BF9D100230126029A55
S1133DE01370EB785B09334202D0280000F0BEFF69
S1133DF06674ECE7B00200206C650000F0B589B091
S1133E00079311AB1B780692364A029383009C58A1
S1133E100591627C0600002A03D10320207409B0B6
S1133E20F0BD029A002A01D11E32109200272E4AB8
S1133E300599D5580E9B300023600F9BA7606360E3
S1133E40029BE760A37427746774FFF74DFF902308
S1133E50AA1C5B051A4310231370842304925B0588
S1133E60EA1C134302221A709823AA185B051A430A
S1133E70402328001370039200F066FF059B069A06
S1133E801988109B009701933000079BFFF756FE9B
S1133E90237CDBB2BB4215D1049AA91C13708C227B
S1133EA052050A430F99012900D1082313702B7975
S1133EB0029B002B03D010993000FFF703FE207CF7
S1133EC0C0B2ACE7237C042BF9D10126039B1F70FD
S1133ED0EB785B09334202D0280000F047FF667498
S1133EE0EDE7C046B00200206C6500001FB5012458
S1133EF00394089C0294079C0194069C0094FFF789
S1133F000DFF04B010BD1FB501240394089C029456
S1133F10079C0194069C0094FFF770FF04B010BD49
S1133F20244B70B58400E5588423EA1C5B051343D5
S1133F3002221A709023A9185B050B431B78EA78B8
S1133F40DBB292061DD5942252050A431278002A48
S1133F5017D0194AA458012B14D1EA781A4204D074
S1133F6004332374FFF7C4FD0BE0E368013BE36013
S1133F70002BF7D0A36828005A1CA2605978FFF7D9
S1133F8097FD70BD6268013A6260002A06D08C23F6
S1133F905B05012A0AD00B43002209E0FFF7A8FDC4
S1133FA023685A1C22602A791A70EAE708220B4314
S1133FB01A70F5E76C650000B0020020C31C842071
S1133FC040051843022303707047000090214905FF
S1133FD00A00F0B58B4B07008000C55889B0EB1C74
S1133FE00193EB78EE78DBB20793F3B20693AB1D43
S1133FF01A43944612789826D2B205929422520516
S11340001A43814C127876050459A81CD2B2334362
S11340100290084301921A780178D2B2C9B204918D
S113402001990390002931D0059900290DD010235E
S1134030624628001370FFF7C1FF236B002B53D097
S11340400121626BF8B298474EE0002A1ED040224C
S113405028001A70FFF7B2FF23002C331B78002BC3
S113406002D1029A16433370236B002B03D0F8B2AB
S1134070626B80219847E37D002B04D020008021CF
S11340801830FFF73AF80A2323702DE0069B280026
S11340909E1101231E40FFF791FF012207990B1186
S11340A0134223D09023EA1C5B05134310221A7099
S11340B0002E0ED0EB785B07DB0F45D1039A13700B
S11340C0236B002B03D0F8B2626B042198472B7941
S11340D00AE0082323702C342278002A04D1982380
S11340E002995B050B431A7009B0F0BD002EE1D1B3
S11340F0049B012B51D1EB78049A13422ED0039BDD
S11341001E702B7923002C331B78002B08D1019BC4
S1134110002B05D19823029A5B051343019A1A7068
S1134120236B002B03D0F8B2626B08219847A37D60
S1134130002B04D0200008211830FEF7DEFF0023F6
S11341406360E3602375CFE71023039A1370236B36
S1134150002B03D0F8B2626B022198476368002BEE
S11341604ED028008022E3680C30520519780243AF
S113417010780028FCD029710133E3606368013BA7
S113418063606368002BAFD1E3602375236B002B5E
S1134190AAD0F8B2626B102155E72B79A268DBB282
S11341A0002A2BD022691370236901332361A36889
S11341B0013BA360A368002B96D1019B002B12D175
S11341C023002C331B78002B05D19823029A5B051E
S11341D01343019A1A70E37D002B04D020002021A0
S11341E01830FEF78AFF002363752361236B002BCD
S11341F000D179E7F8B2626B202124E7072343E773
S1134200062341E76C650000B002002084225205B9
S1134210024303000020127882420CD08020013334
S1134220400503431878013843425841024B404249
S11342301840024BC0187047808D5B0080841E00BC
S113424010B50D4B821D13431B780400DBB2002B09
S11342500FD0012B07D1FFF7D9FF084B08341C43BB
S11342602378D84010BD0020022BFBD1044B1868E2
S1134270F8E70448F6E7C046000008110000901073
S1134280B4020020006CDC020B4B821D13431B782C
S1134290DBB2012B06D0181E0CD00320022B09D050
S11342A0052007E0802301305B0518430078434272
S11342B0584101307047C0460000081102009C2399
S11342C018325B05134380221A700022064B034305
S11342D01A70064A063002431078C0B20028FBD197
S11342E0034B0B607047C046000008130000081120
S11342F0006CDC02F8B504000D0017001E00FFF787
S1134300C3FF012823D1002D25D08023621C5B0527
S113431013431D70842302225B0523431A70220079
S1134320104B083213437A00D2B21A7040220E4B5B
S113433023431A700D4B06341C432378012BFCD104
S1134340002D0DD10A4B3B4100203360F8BD0228FB
S1134350DBD1012DD9D131002000FFF7AFFFD4E725
S1134360044BF0E70000901000000813000008114F
S113437080841E0000127A000A4A10B514680123D2
S1134380002C0CD08024084B03431C70074B0630D0
S113439018430378022BFCD113680B600023180028
S11343A010BDC046B402002000000813000008112C
S11343B09C23C9015B051843C9B20170704794235B
S11343C049015B051843C9B20170704770B50668AE
S11343D00C0030002049FCF7ABFB1F4905003000FE
S11343E0FCF72CFC0E00E12130000901FCF7A0FBD6
S11343F0E121E08009013000FCF720FC0E003C21A3
S11344003000FCF795FB3C2120813000FCF716FCC2
S11344106E22A1720321114BFF322380238895421F
S11344200AD80F499B0700D00E490123CA5CAA424F
S11344300CD36380A58070BD01339BB223800B40F5
S1134440AD1A5A425A416E32FF32E7E70133AD1AD0
S11344500D2BEBD1EEE7C04680510100B2070000FE
S113446071650000986500000188114A03008A18EC
S113447030B50020812A17D85A88541E0B2C13D823
S11344809C88651E1E2D0FD8DD88172D0CD81D891C
S11344903B2D09D89B7A3B2B06D88B0705D0054BBF
S11344A09B5CA3424041C0B230BD034BF8E7C04619
S11344B04EF8FFFF986500007165000070B5134D5C
S11344C0838802885B196E25FF35554344885B1940
S11344D095085B190E4D6600755B5B19920710D049
S11344E00B600A680B4BC4885343827A00899B187B
S11344F0E122120162439B183C2242439B180B6049
S113450070BD022CECD8013BEAE7C0464A05F5FF32
S11345107E650000805101008023084A1B02126856
S11345209A420AD10300A0201033400518430368BF
S1134530002B02D10133FF3303607047B402002023
S11345400100802210B500230124520510311143CB
S11345500C600B6090214360490504601C300143EA
S11345600B608821490501430B60842149050143FF
S113457010430B60036010BD0200902314325B05EE
S1134580134300221A604260103201601A607047BF
S113459003680B6070470000104B820070B5D5585B
S11345A0802204000E4B92051A602800FFF7C8FF12
S11345B02800FFF7B1FF0B4B1F261A5D01231800DB
S11345C009493240095DC025314090408B40074A7B
S11345D06D00505153511060136070BDA865000008
S11345E03C80845EAC650000AD65000000E100E045
S11345F0F7B50027114B8000C65808000D0001973D
S1134600FFF732FF0400B84216D001A92800FFF7D3
S113461055FF3800FEF784FF01008020000281422C
S113462006D0FCF785FA01000198FCF781FA0190A5
S113463001993000FFF7A0FF2000FEBDA86500002F
S1134640F7B50025124B8000C4580E00200001A9C4
S11346500195FFF79DFF2800FEF762FF050080200B
S1134660000285420ED00B4B290004341C43FCF796
S11346705FFA2768019C29004443B8B2FCF758FA52
S113468024180194310001A8FFF7A0FEF7BDC0462D
S1134690A865000000007810F0B50026184B8000D3
S11346A085B0C45808000F0001920396FFF7DCFEA2
S11346B00500B04203D10025280005B0F0BD03A9D0
S11346C03800FFF7FBFE30002768FEF729FF0100E2
S11346D080200002814206D0FCF72AFA01000398E8
S11346E0FCF726FA0390039BBB42E4D3A360882320
S11346F01C345B051C43019B9B002360DCE7C04624
S1134700A8650000044B8000C25888231C325B0556
S11347101343890019607047A8650000054B8000A9
S1134720C258882314325B0513431868431E98410A
S1134730C0B27047A86500006B46E0221B78D20225
S11347401B04134009071943014BC018016070474B
S113475044100000084B8200D258902310B5033255
S11347605B0513431B78002B02D000F013F910BD36
S113477000F078F9FBE7C046B06500000C4B0D4A29
S11347809C218000C35882580020033249051143FC
S113479010B518710870942149050A4310701A7FE6
S11347A0824203D020331800FEF795FC10BDC046AA
S11347B0BC020020B0650000F7B50C0006001B4BDE
S11347C03022870000212000FD58FBF775FF3000E0
S11347D0FEF7B2FEFEF772FE2060280000F0E3FA56
S11347E0200000212030FEF76FFCEB1C0193902386
S11347F0EA1C5B051343102228001A70032100F001
S113480012FB2800002100F033FB094BFC50094B3C
S11348109A5D1F231A401E3B9340074A1360982356
S1134820019A5B05134340221A70F7BDB06500007E
S1134830BC020020B465000000E100E0F8B50D4EB4
S113484084000D4BA7590500E05800F0ACFA38007D
S11348502030FEF750FC094B28005A5D1F231A40F4
S11348601E3B9340064AD367FEF76BFE0023A35119
S1134870F8BDC046BC020020B0650000B46500006D
S113488004E100E00A4B800070B5C658094B0C00E7
S1134890C358150030001A68096800F08BFA2860C4
S11348A0A37930006279217900F0CFFA70BDC04657
S11348B0B0650000BC020020F7B51E4A83009C5876
S11348C0060022790420002A16D11B4A9D5800298B
S11348D003D001AA3000FFF7D5FF98230021402020
S11348E0EA1C5B0513431970187027698F4204D1C1
S11348F03000FFF743FF0020FEBD01232371942302
S11349005B05A1612B431B780720002BF4D0A3681F
S1134910191E02D019780133A360A9712369013BE0
S11349202361A3690133A3619C235B051A4380239C
S11349301370E0E7BC020020B0650000F8B5134F27
S1134940134C85002C59ED590127069E2777A26048
S11349502661E3606661FFF7AFFF061E14D12000F5
S113496007992030FEF7FAFB0328F8D000280BD073
S11349709C220021EB1C52051A43217111709422D0
S113498003265205134319703000F8BDB0650000CA
S1134990BC02002010B51E4B8200D358197900299F
S11349A034D01C4951585A69002A11D09C2252050E
S11349B00A431278002A0BD08A79DC68D2B2002C20
S11349C003D02270DA680132DA605A69013A5A6116
S11349D01A69002A12D0942252050A431278002A36
S11349E00CD09A68141E02D0147801329A608C712B
S11349F01A69013A1A619A6901329A611A69002A9C
S1134A0004D15B69002B01D1FFF7B8FE10BDC0468D
S1134A10BC020020B0650000104A800081580022CA
S1134A200F4B10B5C3580331581CC2779C20400566
S1134A300843DA621A701A835A629A621A6302701D
S1134A409420400501430A701A0038321278002A73
S1134A5003D0181D0121FEF750FB10BDB065000006
S1134A60BC02002070B5254B8200D358591CC97F65
S1134A70002942D022495258D96A002917DB9421CF
S1134A80490511430978002911D0D969CCB2596A72
S1134A90002905D0DD6A002D02DD0C780131596250
S1134AA09471D96A0139D962596B01315963D96A50
S1134AB0002905DA9421D41C4905214300240C70F3
S1134AC0196B002911DD9C2149051143097800293E
S1134AD00BD09279996AD2B2002903D00A709A6AEB
S1134AE001329A621A6B013A1A63DA6A002A04DC08
S1134AF01B6B002B01DCFFF78FFF70BDBC02002095
S1134B00B0650000012903D0032909D0002006E084
S1134B1094235B0518430078431E9841C0B2704744
S1134B208423F6E7431C034849011843C9B20170C2
S1134B307047C04600008812831C94204901400538
S1134B401843C9B201707047831C03488901184394
S1134B50C9B201707047C04600000813831C8C2042
S1134B60C90040051843C9B201707047F7B5384E03
S1134B70C21C164332780B7804000D00D2B2012017
S1134B80072B0FD81800FBF7C9FF041A2D0E1A2D96
S1134B902D47304B01341C43002323703378012B01
S1134BA0FCD10020FEBD0320012AFBD1294B013496
S1134BB01C43402323703378042BFCD1F1E70021FC
S1134BC0012B01D004230221327803209342E9D13E
S1134BD02000FFF7A7FF04211F4A13698B431361C9
S1134BE030BFDEE70227BB4207D100270B79BB4267
S1134BF003D049792000FFF7A7FF184B01341C4369
S1134C0027703378144ADBB20193019B013301937B
S1134C10042311690B43E2E70421104B621C1A437D
S1134C2011706A78A11C0B431A706B78002B06D1A3
S1134C30AB78002B03D0E9782000FFF77DFFAB7938
S1134C40002BDED0E9792000FFF788FFD9E7C046C2
S1134C50000030100000881200ED00E00000101089
S1134C60C31C024818430078C0B2704700003010DB
S1134C70012314308B40012A04D1802212051043F1
S1134C80036070478022D2041043DB43F8E701231A
S1134C908B40002A01D0436070478360FCE7002307
S1134CA0C222037043708370C37043718371C371F4
S1134CB0037242728372C37270470000F0B500241D
S1134CC087B00293FA230126270025009B00534353
S1134CD003900491009301947642AB000593194B21
S1134CE0AA009B1859880498A140FBF721FF009B58
S1134CF0009AC31A824200D9131AB3421FD2114A2E
S1134D00A900525C27000192002B02D00135322DFC
S1134D1013D10134032C01D0002B0DD1029A002AA7
S1134D2000D013603F220199BB0111400B43039A49
S1134D30DBB2537007B0F0BD00251E00CDE7330091
S1134D40E4E7C046CE650000942302305B050343CC
S1134D501B78002B05D088235B05184304230370BC
S1134D60704780231B0518433023F8E79422811CE5
S1134D7052050A4312780223012A0BD18023DB0453
S1134D800B43CE321A7080222021D20003300378E4
S1134D900B4001D118007047013A002A01D0C046E7
S1134DA0F5E70923F6E70423C370002383704370F7
S1134DB003717047F0B5130B89B0012603930823E0
S1134DC00124764202939B19079004910592019362
S1134DD0631E06930227002501E0002E15D039003A
S1134DE005986143FBF7A4FE049B834207D31B1A77
S1134DF09E4204D91E00069B03900295019301353F
S1134E007F00092DE9D1082C09D1019B029A1B01CD
S1134E1013430398079ADBB2537009B0F0BD013411
S1134E20002ED5D1F1E7842310B50224C21C5B0502
S1134E3013434A0022401A70902300195B0518435B
S1134E401023C9001940017010BD10B58C24033023
S1134E506405C9000443C9B2217088219200490540
S1134E600143D2B20A70802252051043037010BD70
S1134E708023012202305B0503430A401A708C230D
S1134E805B0518430823890019400170704700002E
S1134E9004FEFF1F0D09506F776572646F776E20F3
S1134EA0636F6D6D616E64206162616E646F6E65C7
S1134EB0642E20424D583035352064697361626C2C
S1134EC065640A000D09506F776572646F776E2010
S1134ED0636F6D6D616E64206162616E646F6E6597
S1134EE0642E204C33474432304820646973616235
S1134EF06C65640A000D09506F776572646F776E94
S1134F0020636F6D6D616E64206162616E646F6EAB
S1134F1065642E2054435333343732352064697327
S1134F2061626C65640A001B5B306D1B5B343B344F
S1134F30316D1B5B313B33376D0D496E76616C69A6
S1134F406420737570706C7920766F6C746167651A
S1134F50205B25645D206D56211B5B306D0A000DBE
S1134F6009307825303278202D2D3E205B3078258D
S1134F70303278203078253032782030782530323D
S1134F80785D0A000D09307825303278202D2D3EC9
S1134F90203078253032780A000D093078253032F7
S1134FA078202D2D3E202D2D2D2D0A000D0A0925AA
S1134FB0642F256420737563636573732072617451
S1134FC0652E0A000D0925642F256420737563631B
S1134FD06573736573206D617463686564207265BD
S1134FE0662E2076616C7565206F662030782530DA
S1134FF032782E0A000D0925642062616420636FF3
S11350006D6D616E64732E0A0A000A0A0A0D426FFE
S11350106F74696E6720576172702C20696E20333B
S11350202E2E2E2000322E2E2E2000312E2E2E0A31
S11350300D000D0A0A0A0A5B202A09090909570901
S1135040610972097009287265762E20622909099E
S1135050092A205D0A000D5B202009090909202086
S11350602020202043616D627269646765202F20CF
S113507050687973636F6D706C6162202020090938
S1135080090920205D0A0A000D09537570706C79B6
S11350903D25646D562C0944656661756C74205415
S11350A06172676574205265616420526567697333
S11350B07465723D3078253032780A000D09493222
S11350C0433D25646B622F732C095350493D25647D
S11350D06B622F732C09554152543D25646B622F2A
S11350E0732C094932432050756C6C2D55703D2545
S11350F0640A0A000D0953494D2D3E534347433674
S11351003D30782530327809095254432D3E5352AC
S11351103D30782530327809095254432D3E54539A
S1135120523D3078253032780A000D094D43475FEF
S113513043313D3078253032780909094D43475FC2
S113514043323D30782530327809094D43475F5367
S11351503D3078253032780A000D094D43475F53BE
S1135160433D3078253032780909094D43475F4D76
S1135170433D30782530327809094F53435F435219
S11351803D3078253032780A000D09534D435F5085
S11351904D50524F543D3078253032780909095327
S11351A04D435F504D4354524C3D30782530327856
S11351B009095343422D3E5343523D307825303242
S11351C0780A000D09504D435F52454753433D3023
S11351D0782530327809090953494D5F53434743D1
S11351E0343D307825303278095254432D3E5450A2
S11351F0523D3078253032780A0A000D092564734F
S113520020696E205254432048616E646C6572209C
S1135210746F2D646174652C09256420506D677268
S1135220204572726F72730A000D53656C65637466
S11352303A0A000D2D202761273A207365742064F3
S1135240656661756C742073656E736F722E0A00E7
S11352500D2D202762273A2073657420493243209C
S11352606261756420726174652E0A000D2D202719
S113527063273A2073657420535049206261756432
S113528020726174652E0A000D2D202764273A20B0
S113529073657420554152542062617564207261B3
S11352A074652E0A000D2D202765273A2073657436
S11352B02064656661756C742072656769737465D2
S11352C07220616464726573732E0A000D2D2027A9
S11352D066273A2077726974652062797465207450
S11352E06F2073656E736F722E0A000D2D20276771
S11352F0273A207365742064656661756C74205365
S113530053535550504C592E0A000D2D2027682711
S11353103A20706F776572646F776E20636F6D6D7E
S1135320616E6420746F20616C6C2073656E736FA2
S113533072732E0A000D2D202769273A2073657495
S11353402070756C6C2D757020656E61626C6520C3
S113535076616C75652E0A000D2D20276A273A2088
S1135360726570656174207265616420726567207E
S1135370307825303278206F6E2073656E736F72CB
S1135380202325642E0A000D2D20276B273A207335
S11353906C65657020756E74696C207265736574D4
S11353A02E0A000D2D20276C273A2073656E642089
S11353B072657065617465642062797465206F6ECE
S11353C0204932432E0A000D2D20276D273A2073E1
S11353D0656E6420726570656174656420627974B9
S11353E065206F6E205350492E0A000D2D20276E24
S11353F0273A20656E61626C6520535353555050B3
S11354004C592E0A000D2D20276F273A206469730A
S113541061626C65205353535550504C592E0A0009
S11354200D2D202770273A207377697463682074E0
S11354306F20564C5052206D6F64652E0A000D2D5E
S1135440202772273A2073776974636820746F2069
S113545052554E206D6F64652E0A000D2D20277362
S1135460273A20706F77657220757020616C6C200C
S113547073656E736F72732E0A000D2D20277427C7
S11354803A2064756D702070726F636573736F7208
S11354902073746174652E0A000D2D202775273A38
S11354A020736574204932432061646472657373A8
S11354B02E0A000D2D202778273A20646973616233
S11354C06C652053574420616E64207370696E20AC
S11354D0666F7220313020736563732E0A000D2DC0
S11354E020277A273A2064756D7020616C6C2073D4
S11354F0656E736F727320646174612E0A000D45CA
S11355006E7465722073656C656374696F6E3E209A
S1135510000D0953656C6563743A0A000D092D206A
S1135520273127204144584C3336320909092830A1
S11355307830302D2D30783244293A20312E3656A9
S1135540202D2D20332E35562028636F6D70696C05
S11355506564206F757429200A000D092D202732F7
S11355602720424D58303535616363656C20090945
S113557028307830302D2D30783346293A20322E99
S11355803456202D2D20332E36562028636F6D700F
S1135590696C6564206F757429200A000D092D203B
S11355A027332720424D583035356779726F090902
S11355B00928307830302D2D30783346293A20327E
S11355C02E3456202D2D20332E36562028636F6D11
S11355D070696C6564206F757429200A000D092DAB
S11355E02027342720424D583035356D616709092D
S11355F00928307834302D2D30783532293A20324C
S11356002E3456202D2D20332E36562028636F6DD0
S113561070696C6564206F757429200A000D092D6A
S113562020273527204D4D4138343531510909099A
S113563028307830302D2D30783331293A20312EEE
S1135640393556202D2D20332E36560A000D092DBE
S113565020273627204C5053323548090909283071
S11356607830382D2D30783234293A20312E37567F
S1135670202D2D20332E36562028636F6D70696CD3
S11356806564206F757429200A000D092D202737C1
S113569027204D414733313130090909283078300A
S11356A0302D2D30783131293A20312E393556209C
S11356B02D2D20332E36562028636F6D70696C654E
S11356C064206F757429200A000D092D20273827BE
S11356D020484443313030300909092830783030CB
S11356E02D2D30783146293A20332E3056202D2D59
S11356F020352E30562028636F6D70696C656420E8
S11357006F757429200A000D092D2027392720538D
S1135710493730323109090928307830302D2D309D
S1135720783046293A20312E3956202D2D20332E1B
S113573036562028636F6D70696C6564206F7574CC
S113574029200A000D092D20276127204C334744C6
S113575032304809090928307830462D2D30783305
S113576039293A20322E3256202D2D20332E36560A
S11357702028636F6D70696C6564206F75742920CF
S11357800A000D092D2027622720424D4536383066
S113579009090928307841412D2D30784638293AB5
S11357A020312E3656202D2D20332E3656202863B8
S11357B06F6D70696C6564206F757429200A000D23
S11357C0092D2027642720544353333437323509B5
S11357D0090928307830302D2D30783144293A2089
S11357E0322E3756202D2D20332E33562028636F2A
S11357F06D70696C6564206F757429200A000D0949
S11358002D202765272053493437303509090928C5
S11358106E2F61293A2020202020202020322E378C
S113582056202D2D20352E35562028636F6D706936
S11358306C6564206F757429200A000D092D2027DA
S113584066272050414E31333236090909286E2F1C
S113585061292028636F6D70696C6564206F7574AD
S113586029200A000D092D20276727204343533898
S1135870313109090928307830302D2D30784646E9
S1135880293A20312E3856202D2D20332E365620FD
S113589028636F6D70696C6564206F757429200AC4
S11358A0000D092D2027682720414D47383833340F
S11358B009090928307830302D2D3F293A203F56E8
S11358C0202D2D203F562028636F6D70696C656410
S11358D0206F757429200A000D092D20276A2720BE
S11358E041533732363209090928307830302D2DAA
S11358F030783242293A20322E3756202D2D20334B
S11359002E36562028636F6D70696C6564206F7540
S11359107429200A000D092D20276B2720415337B5
S113592032363309090928307830302D2D30783259
S113593042293A20322E3756202D2D20332E36562A
S11359402028636F6D70696C6564206F75742920FD
S11359500A000D092D20276C2720494E4132313988
S113596009090928307830302D2D30783035293A1E
S113597020332E3056202D2D20352E35560A000D7D
S113598009456E7465722073656C656374696F6E26
S11359903E20000D09436F7720676F6573206D6F9C
S11359A06F200A000D09496E76616C696420736585
S11359B06C656374696F6E202725632720210A00B4
S11359C00D0A0953657420493243206261756420CD
S11359D07261746520696E206B6270732028652E75
S11359E0672E2C20273030303127293E20000D0A25
S11359F009493243206261756420726174652073C1
S1135A00657420746F202564206B622F73000D0A67
S1135A100953657420535049206261756420726192
S1135A20746520696E206B6270732028652E672E62
S1135A302C20273030303127293E20000D0A09530D
S1135A405049206261756420726174653A2025644E
S1135A50206B622F73000D0A09536574205541525F
S1135A60542062617564207261746520696E206BD4
S1135A706270732028652E672E2C20273030303139
S1135A8027293E20000D0A095541525420626175B0
S1135A906420726174653A202564206B622F730060
S1135AA00D0A09456E74657220322D6E7962626C3E
S1135AB06520726567697374657220686578206112
S1135AC06464726573732028652E672E2C20273337
S1135AD06527293E20000D0A09456E7465726564C8
S1135AE0205B3078253032785D2E0A0A000D0A09D1
S1135AF0456E7465722049324320616464722E20BD
S1135B0028652E672E2C202730662729206F7220C7
S1135B102739392720666F7220535049203E2000D0
S1135B200D0A09456E7465726564205B3078253012
S1135B3032785D2E0A000D0A09456E74657220687C
S1135B406578206279746520746F2073656E6420B3
S1135B5028652E672E2C2027306627293E20000D2D
S1135B600A09535049207772697465206661696C2B
S1135B7065642E204144584C3336322044697361A5
S1135B80626C6564000D0A094932432077726974B6
S1135B9065206661696C65642C206572726F722081
S1135BA025642E0A0A000D0A094F7665727269642B
S1135BB065205353535550504C5920696E206D56EF
S1135BC02028652E672E2C20273138303027293E97
S1135BD020000D0A094F766572726964652053537B
S1135BE0535550504C592073657420746F202564AC
S1135BF0206D56000D0A094E4F54453A20466972ED
S1135C00737420706F7765722073656E736F72732F
S1135C1020616E6420656E61626C65204932430ABE
S1135C200A000D0A0944656661756C742070756C10
S1135C306C757020656E61626C652076616C75654B
S1135C4020696E206B696C6F4F686D732028652E18
S1135C50672E2C20273030303027293E20000D0AB3
S1135C600949326350756C6C757056616C756520AA
S1135C7073657420746F2025640A000D0A09417548
S1135C80746F2D696E6372656D656E742066726FD4
S1135C906D20626173652061646472657373203082
S1135CA078253032783F205B273027207C2027312D
S1135CB0275D3E20000D0A094368756E6B207265EE
S1135CC0616473207065722061646472657373200B
S1135CD028652E672E2C20273127293E20000D0A07
S1135CE0094368617474793F205B273027207C2046
S1135CF02731275D3E20000D0A09496E7465722D17
S1135D006F7065726174696F6E207370696E206460
S1135D10656C617920696E206D696C6C697365636B
S1135D206F6E64732028652E672E2C202730303048
S1135D303027293E20000D0A095265706574697484
S1135D40696F6E7320706572206164647265737329
S1135D502028652E672E2C20273030303027293E0E
S1135D6020000D0A094D6178696D756D20766F6CA0
S1135D707461676520666F7220616461707469760E
S1135D806520737570706C792028652E672E2C2021
S1135D90273030303027293E20000D0A095265662D
S1135DA06572656E6365206279746520666F722022
S1135DB0636F6D70617269736F6E732028652E67EF
S1135DC02E2C2027336527293E20000D0A09526511
S1135DD070656174696E672064657625642040206F
S1135DE03078253032782C20726570733D25642C10
S1135DF02070756C6C3D25642C2064656C61793D64
S1135E0025646D733A0A0A000D0A09536C656570BE
S1135E10696E6720756E74696C2073797374656D2F
S1135E202072657365742E2E2E0A000D0A094279BC
S1135E30746520746F2073656E642028652E672E48
S1135E402C2027463027293E20000D0A0952657070
S1135E5065746974696F6E732028652E672E2C2013
S1135E60273030303027293E20000D0A0953656E53
S1135E7064696E672025642072657065746974694D
S1135E806F6E73206F66205B3078253032785D202A
S1135E906F6E204932432C2069326350756C6C75E7
S1135EA070456E61626C653D25642C2053535355D7
S1135EB050504C593D25646D560A0A000D0A095389
S1135EC0656E64696E672025642072657065746907
S1135ED074696F6E73206F66205B3078253032787A
S1135EE05D206F6E205350492C205353535550500E
S1135EF04C593D25646D560A0A000D0A0943616E2A
S1135F006E6F742073657420493243206164647237
S1135F106573733A204669727374207365742074D0
S1135F2068652064656661756C7420493243206439
S1135F3065766963652E0A000D0A09536574204964
S1135F4032432061646472657373206F66207468E1
S1135F50652073656C65637465642073656E736F27
S1135F607228652E672E2C2027314327293E2000D6
S1135F700D0A095370696E6E696E6720666F722030
S1135F803130207365636F6E64732E2E2E0A000DFC
S1135F9009446F6E652E0A0A000D0A09456E616296
S1135FA06C696E67204932432070696E732E2E2E01
S1135FB00A000D0A09486578206F7220636F6E76B7
S1135FC06572746564206D6F64653F2028276827B7
S1135FD0206F7220276327293E20000D0A0953658C
S1135FE074207468652074696D652064656C6179DA
S1135FF0206265747765656E2065616368207275DB
S11360006E20696E206D696C6C697365636F6E6474
S1136010732028652E672E2C20273132333427290C
